{
  "address": "0x00a789D13B32a27E960e6eba66c3636A2FaBa39E",
  "abi": [
    {
      "inputs": [
        {
          "internalType": "address",
          "name": "vrfCoordinatorV2",
          "type": "address"
        },
        {
          "internalType": "bytes32",
          "name": "gasLane",
          "type": "bytes32"
        },
        {
          "internalType": "uint64",
          "name": "subscriptionId",
          "type": "uint64"
        },
        {
          "internalType": "uint32",
          "name": "callbackGasLimit",
          "type": "uint32"
        },
        {
          "internalType": "uint256",
          "name": "entranceFee_min",
          "type": "uint256"
        },
        {
          "internalType": "uint256",
          "name": "entranceFee_max",
          "type": "uint256"
        },
        {
          "internalType": "uint32",
          "name": "winRate",
          "type": "uint32"
        },
        {
          "internalType": "uint256",
          "name": "gameTime",
          "type": "uint256"
        }
      ],
      "stateMutability": "nonpayable",
      "type": "constructor"
    },
    {
      "inputs": [],
      "name": "Jackpot_NotEnoughEthEntered",
      "type": "error"
    },
    {
      "inputs": [],
      "name": "Jackpot_NotOpen",
      "type": "error"
    },
    {
      "inputs": [],
      "name": "Jackpot_NotOwner",
      "type": "error"
    },
    {
      "inputs": [
        {
          "internalType": "uint256",
          "name": "feeAmount",
          "type": "uint256"
        }
      ],
      "name": "Jackpot_TansferToOwnerFailed",
      "type": "error"
    },
    {
      "inputs": [
        {
          "internalType": "address",
          "name": "winner",
          "type": "address"
        },
        {
          "internalType": "uint256",
          "name": "winAmount",
          "type": "uint256"
        }
      ],
      "name": "Jackpot_TansferToWinnerFailed",
      "type": "error"
    },
    {
      "inputs": [],
      "name": "Jackpot_TooMuchEthEntered",
      "type": "error"
    },
    {
      "inputs": [
        {
          "internalType": "uint256",
          "name": "currentBalance",
          "type": "uint256"
        },
        {
          "internalType": "uint256",
          "name": "numPlayers",
          "type": "uint256"
        },
        {
          "internalType": "uint256",
          "name": "raffleState",
          "type": "uint256"
        }
      ],
      "name": "Jackpot_UpkeepNotNeeded",
      "type": "error"
    },
    {
      "inputs": [
        {
          "internalType": "uint256",
          "name": "randomWord",
          "type": "uint256"
        }
      ],
      "name": "Jackpot__NoWinnerFound",
      "type": "error"
    },
    {
      "inputs": [
        {
          "internalType": "address",
          "name": "have",
          "type": "address"
        },
        {
          "internalType": "address",
          "name": "want",
          "type": "address"
        }
      ],
      "name": "OnlyCoordinatorCanFulfill",
      "type": "error"
    },
    {
      "anonymous": false,
      "inputs": [
        {
          "indexed": false,
          "internalType": "uint256",
          "name": "amount",
          "type": "uint256"
        }
      ],
      "name": "GameFeeTransfered",
      "type": "event"
    },
    {
      "anonymous": false,
      "inputs": [
        {
          "indexed": true,
          "internalType": "address",
          "name": "player",
          "type": "address"
        },
        {
          "indexed": false,
          "internalType": "uint256",
          "name": "amount",
          "type": "uint256"
        }
      ],
      "name": "JackpotEnter",
      "type": "event"
    },
    {
      "anonymous": false,
      "inputs": [
        {
          "indexed": true,
          "internalType": "uint256",
          "name": "requestId",
          "type": "uint256"
        }
      ],
      "name": "RequestedJackpotWinner",
      "type": "event"
    },
    {
      "anonymous": false,
      "inputs": [],
      "name": "ResetGame",
      "type": "event"
    },
    {
      "anonymous": false,
      "inputs": [
        {
          "indexed": true,
          "internalType": "address",
          "name": "winner",
          "type": "address"
        },
        {
          "indexed": true,
          "internalType": "uint256",
          "name": "rndNumber",
          "type": "uint256"
        },
        {
          "indexed": true,
          "internalType": "uint256",
          "name": "indexOfWinningBalance",
          "type": "uint256"
        },
        {
          "indexed": false,
          "internalType": "uint256",
          "name": "contractStartingBalance",
          "type": "uint256"
        }
      ],
      "name": "WinnerPicked",
      "type": "event"
    },
    {
      "inputs": [],
      "name": "ResetLottery",
      "outputs": [],
      "stateMutability": "nonpayable",
      "type": "function"
    },
    {
      "inputs": [
        {
          "internalType": "bytes",
          "name": "checkData",
          "type": "bytes"
        }
      ],
      "name": "checkUpkeep",
      "outputs": [
        {
          "internalType": "bool",
          "name": "upkeepNeeded",
          "type": "bool"
        },
        {
          "internalType": "bytes",
          "name": "",
          "type": "bytes"
        }
      ],
      "stateMutability": "nonpayable",
      "type": "function"
    },
    {
      "inputs": [],
      "name": "enterJackpot",
      "outputs": [],
      "stateMutability": "payable",
      "type": "function"
    },
    {
      "inputs": [
        {
          "internalType": "address",
          "name": "player",
          "type": "address"
        }
      ],
      "name": "getAddressToAmount",
      "outputs": [
        {
          "internalType": "uint256",
          "name": "",
          "type": "uint256"
        }
      ],
      "stateMutability": "view",
      "type": "function"
    },
    {
      "inputs": [],
      "name": "getEntranceFeeMax",
      "outputs": [
        {
          "internalType": "uint256",
          "name": "",
          "type": "uint256"
        }
      ],
      "stateMutability": "view",
      "type": "function"
    },
    {
      "inputs": [],
      "name": "getEntranceFeeMin",
      "outputs": [
        {
          "internalType": "uint256",
          "name": "",
          "type": "uint256"
        }
      ],
      "stateMutability": "view",
      "type": "function"
    },
    {
      "inputs": [],
      "name": "getGameStartTimeStamp",
      "outputs": [
        {
          "internalType": "uint256",
          "name": "",
          "type": "uint256"
        }
      ],
      "stateMutability": "view",
      "type": "function"
    },
    {
      "inputs": [],
      "name": "getGameState",
      "outputs": [
        {
          "internalType": "enum Jackpot.GameState",
          "name": "",
          "type": "uint8"
        }
      ],
      "stateMutability": "view",
      "type": "function"
    },
    {
      "inputs": [],
      "name": "getGameTime",
      "outputs": [
        {
          "internalType": "uint256",
          "name": "",
          "type": "uint256"
        }
      ],
      "stateMutability": "view",
      "type": "function"
    },
    {
      "inputs": [],
      "name": "getOwner",
      "outputs": [
        {
          "internalType": "address",
          "name": "",
          "type": "address"
        }
      ],
      "stateMutability": "view",
      "type": "function"
    },
    {
      "inputs": [
        {
          "internalType": "uint256",
          "name": "index",
          "type": "uint256"
        }
      ],
      "name": "getPlayerAtIndex",
      "outputs": [
        {
          "internalType": "address",
          "name": "",
          "type": "address"
        }
      ],
      "stateMutability": "view",
      "type": "function"
    },
    {
      "inputs": [],
      "name": "getPlayersAmount",
      "outputs": [
        {
          "internalType": "uint256",
          "name": "",
          "type": "uint256"
        }
      ],
      "stateMutability": "view",
      "type": "function"
    },
    {
      "inputs": [],
      "name": "getRecentWinner",
      "outputs": [
        {
          "internalType": "address",
          "name": "",
          "type": "address"
        }
      ],
      "stateMutability": "view",
      "type": "function"
    },
    {
      "inputs": [],
      "name": "getRecentWinnerAmount",
      "outputs": [
        {
          "internalType": "uint256",
          "name": "",
          "type": "uint256"
        }
      ],
      "stateMutability": "view",
      "type": "function"
    },
    {
      "inputs": [],
      "name": "getRecentWinnerEntry",
      "outputs": [
        {
          "internalType": "uint256",
          "name": "",
          "type": "uint256"
        }
      ],
      "stateMutability": "view",
      "type": "function"
    },
    {
      "inputs": [],
      "name": "getWinRate",
      "outputs": [
        {
          "internalType": "uint32",
          "name": "",
          "type": "uint32"
        }
      ],
      "stateMutability": "view",
      "type": "function"
    },
    {
      "inputs": [
        {
          "internalType": "bytes",
          "name": "",
          "type": "bytes"
        }
      ],
      "name": "performUpkeep",
      "outputs": [],
      "stateMutability": "nonpayable",
      "type": "function"
    },
    {
      "inputs": [
        {
          "internalType": "uint256",
          "name": "requestId",
          "type": "uint256"
        },
        {
          "internalType": "uint256[]",
          "name": "randomWords",
          "type": "uint256[]"
        }
      ],
      "name": "rawFulfillRandomWords",
      "outputs": [],
      "stateMutability": "nonpayable",
      "type": "function"
    }
  ],
  "transactionHash": "0x8c65dacc03c9b5c8a753b1f33a0ca891289aa2723b21765af760717d452fd433",
  "args": [
    "0x8103B0A8A00be2DDC778e6e7eaa21791Cd364625",
    "0x474e34a077df58807dbe9c96d3c009b23b3c6d0cce433e59bbf5b34f823bc56c",
    "2867",
    "500000",
    "1000000000000000",
    "1000000000000000000",
    95,
    "60"
  ],
  "numDeployments": 2,
  "solcInputHash": "568d9cb7bdeef5b0f9a414663575107a",
  "bytecode": "0x61016060405234801561001157600080fd5b506040516113b73803806113b7833981016040819052610030916100cc565b6001600160a01b0397909716608081905260a05260c0959095526001600160401b039390931660e05263ffffffff918216610100526000805461012092909252610140939093526001600160c01b0319163363ffffffff60a01b191617600160a01b91909316029190911790556001556004805460ff1916905542600555610164565b805163ffffffff811681146100c757600080fd5b919050565b600080600080600080600080610100898b0312156100e957600080fd5b88516001600160a01b038116811461010057600080fd5b60208a015160408b015191995097506001600160401b038116811461012457600080fd5b955061013260608a016100b3565b94506080890151935060a0890151925061014e60c08a016100b3565b915060e089015190509295985092959890939650565b60805160a05160c05160e0516101005161012051610140516111dd6101da6000396000818161035101526108810152600081816103090152818161063e015261082301526000610517015260006104e0015260006104b8015260006105550152600081816103b001526103f201526111dd6000f3fe6080604052600436106101095760003560e01c8063893ef28811610095578063c0f8cffc11610064578063c0f8cffc146102bc578063da931fe0146102f2578063ee106406146102fa578063f2f9bcbe1461032d578063fb48d0431461034257600080fd5b8063893ef2881461025d5780639d21dd7814610272578063a2648b8414610287578063b7d0628b1461029c57600080fd5b8063473f1ddc116100dc578063473f1ddc146101ac5780636e04ff0d146101ca5780636e0e126e146101f85780636f61e4321461020d578063893d20e81461023f57600080fd5b80630bcd484a1461010e5780631b1d66291461014b5780631fe543e31461016a5780634585e33b1461018c575b600080fd5b34801561011a57600080fd5b5061012e610129366004610de9565b610375565b6040516001600160a01b0390911681526020015b60405180910390f35b34801561015757600080fd5b506002545b604051908152602001610142565b34801561017657600080fd5b5061018a610185366004610e49565b6103a5565b005b34801561019857600080fd5b5061018a6101a7366004610efb565b610432565b3480156101b857600080fd5b506006546001600160a01b031661012e565b3480156101d657600080fd5b506101ea6101e5366004610f6d565b6105f6565b604051610142929190611002565b34801561020457600080fd5b5060075461015c565b34801561021957600080fd5b50600054600160a01b900463ffffffff1660405163ffffffff9091168152602001610142565b34801561024b57600080fd5b506000546001600160a01b031661012e565b34801561026957600080fd5b5061018a610695565b34801561027e57600080fd5b5060015461015c565b34801561029357600080fd5b5060085461015c565b3480156102a857600080fd5b5060045460ff166040516101429190611070565b3480156102c857600080fd5b5061015c6102d7366004611098565b6001600160a01b031660009081526003602052604090205490565b61018a610821565b34801561030657600080fd5b507f000000000000000000000000000000000000000000000000000000000000000061015c565b34801561033957600080fd5b5060055461015c565b34801561034e57600080fd5b507f000000000000000000000000000000000000000000000000000000000000000061015c565b60006002828154811061038a5761038a6110c8565b6000918252602090912001546001600160a01b031692915050565b336001600160a01b037f000000000000000000000000000000000000000000000000000000000000000016146104245760405163073e64fd60e21b81523360048201526001600160a01b037f00000000000000000000000000000000000000000000000000000000000000001660248201526044015b60405180910390fd5b61042e82826109d6565b5050565b600061044c604051806020016040528060008152506105f6565b5090508061049c5760028054600454479260ff909116908111156104725761047261105a565b604051639f685eef60e01b815260048101939093526024830191909152604482015260640161041b565b6004805460ff191660021781556040516305d3b1d360e41b81527f0000000000000000000000000000000000000000000000000000000000000000918101919091527f000000000000000000000000000000000000000000000000000000000000000067ffffffffffffffff166024820152600360448201527f000000000000000000000000000000000000000000000000000000000000000063ffffffff166064820152600160848201526000906001600160a01b037f00000000000000000000000000000000000000000000000000000000000000001690635d3b1d309060a4016020604051808303816000875af115801561059e573d6000803e3d6000fd5b505050506040513d601f19601f820116820180604052508101906105c291906110de565b60405190915081907f6aad543c7a9f51b57161c6d8615355bda83dc7aca9edf7afc1ce73b9f605ab3e90600090a250505050565b6000606081600160045460ff1660028111156106145761061461105a565b14905060006001546005544261062a919061110d565b1190506000600160028054905011905060007f000000000000000000000000000000000000000000000000000000000000000060026106699190611126565b47101590508380156106785750825b80156106815750815b801561068a5750805b955050505050915091565b6000546001600160a01b031633146106c0576040516330247ec360e11b815260040160405180910390fd5b60005b6002548110156107c9576000600282815481106106e2576106e26110c8565b60009182526020808320909101546001600160a01b03168083526003918290526040832054600280549295509093929183919087908110610725576107256110c8565b6000918252602080832091909101546001600160a01b039081168452908301939093526040918201812093909355519084169083908381818185875af1925050503d8060008114610792576040519150601f19603f3d011682016040523d82523d6000602084013e610797565b606091505b5050506001600160a01b03909216600090815260036020526040812055508190506107c18161113d565b9150506106c3565b506004805460ff1916905560408051600081526020810191829052516107f191600291610d6f565b50426005556040517fc41db7bf93b2ffacecac5d21bb880bf7435f8e756b583a2434d667ebd52516d690600090a1565b7f0000000000000000000000000000000000000000000000000000000000000000341015610862576040516334b462ef60e01b815260040160405180910390fd5b3360009081526003602052604081205461087d903490611156565b90507f00000000000000000000000000000000000000000000000000000000000000008111156108bf57604051622a760b60e91b815260040160405180910390fd5b600260045460ff1660028111156108d8576108d861105a565b036108f657604051633e3fa89560e21b815260040160405180910390fd5b33600090815260036020526040812054900361094f57600280546001810182556000919091527f405787fa12a823e0f2b7631cc41b3ba8828b3321ca811111fa75cd3aa3bb5ace0180546001600160a01b031916331790555b33600090815260036020526040812082905560045460ff1660028111156109785761097861105a565b14801561098757506002546001105b1561099e57426005556004805460ff191660011790555b60405181815233907f77c14226c05e841358bdd5c71853a6a80bf44a8630443ef288711838db4c412d9060200160405180910390a250565b6000479050600081836000815181106109f1576109f16110c8565b6020026020010151610a03919061117f565b90506000806000805b600254811015610a83576003600060028381548110610a2d57610a2d6110c8565b60009182526020808320909101546001600160a01b03168352820192909252604001902054610a5c9085611156565b9350838511610a715780915060019250610a83565b80610a7b8161113d565b915050610a0c565b5081610ac05785600081518110610a9c57610a9c6110c8565b6020026020010151604051632853fc1d60e21b815260040161041b91815260200190565b600060028281548110610ad557610ad56110c8565b600091825260208220015481546001600160a01b039091169250606490610b0990600160a01b900463ffffffff1647611126565b610b139190611193565b600680546001600160a01b0319166001600160a01b03851690811790915560009081526003602052604081205460085560078290556004805460ff191690559091505b600254811015610bb05760006003600060028481548110610b7957610b796110c8565b60009182526020808320909101546001600160a01b0316835282019290925260400190205580610ba88161113d565b915050610b56565b506040805160008152602081019182905251610bce91600291610d6f565b50426005556040516000906001600160a01b0384169083908381818185875af1925050503d8060008114610c1e576040519150601f19603f3d011682016040523d82523d6000602084013e610c23565b606091505b5050905080610c57576040516391d2309160e01b81526001600160a01b03841660048201526024810183905260440161041b565b8689600081518110610c6b57610c6b6110c8565b6020026020010151846001600160a01b03167f0c94cfc5a2ba1b9f32b037a5042267ae4df56cb9d5308471e0b3d05d099d591d8b604051610cae91815260200190565b60405180910390a4600080546040514792916001600160a01b03169047908381818185875af1925050503d8060008114610d04576040519150601f19603f3d011682016040523d82523d6000602084013e610d09565b606091505b5050905080610d2e5760405163244e08a560e11b81526004810183905260240161041b565b6040518281527f1314e3ae34630ec7009a8b8f90b1e3093eab539f0428edaf5039a3a85403b85b9060200160405180910390a1505050505050505050505050565b828054828255906000526020600020908101928215610dc4579160200282015b82811115610dc457825182546001600160a01b0319166001600160a01b03909116178255602090920191600190910190610d8f565b50610dd0929150610dd4565b5090565b5b80821115610dd05760008155600101610dd5565b600060208284031215610dfb57600080fd5b5035919050565b634e487b7160e01b600052604160045260246000fd5b604051601f8201601f1916810167ffffffffffffffff81118282101715610e4157610e41610e02565b604052919050565b60008060408385031215610e5c57600080fd5b8235915060208084013567ffffffffffffffff80821115610e7c57600080fd5b818601915086601f830112610e9057600080fd5b813581811115610ea257610ea2610e02565b8060051b9150610eb3848301610e18565b8181529183018401918481019089841115610ecd57600080fd5b938501935b83851015610eeb57843582529385019390850190610ed2565b8096505050505050509250929050565b60008060208385031215610f0e57600080fd5b823567ffffffffffffffff80821115610f2657600080fd5b818501915085601f830112610f3a57600080fd5b813581811115610f4957600080fd5b866020828501011115610f5b57600080fd5b60209290920196919550909350505050565b60006020808385031215610f8057600080fd5b823567ffffffffffffffff80821115610f9857600080fd5b818501915085601f830112610fac57600080fd5b813581811115610fbe57610fbe610e02565b610fd0601f8201601f19168501610e18565b91508082528684828501011115610fe657600080fd5b8084840185840137600090820190930192909252509392505050565b821515815260006020604081840152835180604085015260005b818110156110385785810183015185820160600152820161101c565b506000606082860101526060601f19601f830116850101925050509392505050565b634e487b7160e01b600052602160045260246000fd5b602081016003831061109257634e487b7160e01b600052602160045260246000fd5b91905290565b6000602082840312156110aa57600080fd5b81356001600160a01b03811681146110c157600080fd5b9392505050565b634e487b7160e01b600052603260045260246000fd5b6000602082840312156110f057600080fd5b5051919050565b634e487b7160e01b600052601160045260246000fd5b81810381811115611120576111206110f7565b92915050565b8082028115828204841417611120576111206110f7565b60006001820161114f5761114f6110f7565b5060010190565b80820180821115611120576111206110f7565b634e487b7160e01b600052601260045260246000fd5b60008261118e5761118e611169565b500690565b6000826111a2576111a2611169565b50049056fea26469706673582212200f5d8b90900d99c1f641c5d55e7e48a5956bf7320ae90a7ca5b0486b4d7216ca64736f6c63430008130033",
  "devdoc": {
    "kind": "dev",
    "methods": {
      "checkUpkeep(bytes)": {
        "details": "To ensure that it is never called, you may want to add the cannotExecute modifier from KeeperBase to your implementation of this method.",
        "params": {
          "checkData": "specified in the upkeep registration so it is always the same for a registered upkeep. This can easily be broken down into specific arguments using `abi.decode`, so multiple upkeeps can be registered on the same contract and easily differentiated by the contract."
        },
        "returns": {
          "_1": "bytes that the keeper should call performUpkeep with, if upkeep is needed. If you would like to encode data to decode later, try `abi.encode`.",
          "upkeepNeeded": "boolean to indicate whether the keeper should call performUpkeep or not."
        }
      }
    },
    "version": 1
  },
  "userdoc": {
    "kind": "user",
    "methods": {
      "checkUpkeep(bytes)": {
        "notice": "method that is simulated by the keepers to see if any work actually needs to be performed. This method does does not actually need to be executable, and since it is only ever simulated it can consume lots of gas."
      }
    },
    "version": 1
  },
  "storageLayout": {
    "storage": [
      {
        "astId": 236,
        "contract": "contracts/Jackpot.sol:Jackpot",
        "label": "i_owner",
        "offset": 0,
        "slot": "0",
        "type": "t_address_payable"
      },
      {
        "astId": 242,
        "contract": "contracts/Jackpot.sol:Jackpot",
        "label": "i_winRate",
        "offset": 20,
        "slot": "0",
        "type": "t_uint32"
      },
      {
        "astId": 244,
        "contract": "contracts/Jackpot.sol:Jackpot",
        "label": "i_gameTime",
        "offset": 0,
        "slot": "1",
        "type": "t_uint256"
      },
      {
        "astId": 247,
        "contract": "contracts/Jackpot.sol:Jackpot",
        "label": "s_players",
        "offset": 0,
        "slot": "2",
        "type": "t_array(t_address_payable)dyn_storage"
      },
      {
        "astId": 251,
        "contract": "contracts/Jackpot.sol:Jackpot",
        "label": "s_addressToAmount",
        "offset": 0,
        "slot": "3",
        "type": "t_mapping(t_address,t_uint256)"
      },
      {
        "astId": 254,
        "contract": "contracts/Jackpot.sol:Jackpot",
        "label": "s_gameState",
        "offset": 0,
        "slot": "4",
        "type": "t_enum(GameState)219"
      },
      {
        "astId": 256,
        "contract": "contracts/Jackpot.sol:Jackpot",
        "label": "s_gameStartTimeStamp",
        "offset": 0,
        "slot": "5",
        "type": "t_uint256"
      },
      {
        "astId": 258,
        "contract": "contracts/Jackpot.sol:Jackpot",
        "label": "s_recentWinnerAddress",
        "offset": 0,
        "slot": "6",
        "type": "t_address"
      },
      {
        "astId": 260,
        "contract": "contracts/Jackpot.sol:Jackpot",
        "label": "s_recentWinnerAmount",
        "offset": 0,
        "slot": "7",
        "type": "t_uint256"
      },
      {
        "astId": 262,
        "contract": "contracts/Jackpot.sol:Jackpot",
        "label": "s_recentWinnerEntry",
        "offset": 0,
        "slot": "8",
        "type": "t_uint256"
      }
    ],
    "types": {
      "t_address": {
        "encoding": "inplace",
        "label": "address",
        "numberOfBytes": "20"
      },
      "t_address_payable": {
        "encoding": "inplace",
        "label": "address payable",
        "numberOfBytes": "20"
      },
      "t_array(t_address_payable)dyn_storage": {
        "base": "t_address_payable",
        "encoding": "dynamic_array",
        "label": "address payable[]",
        "numberOfBytes": "32"
      },
      "t_enum(GameState)219": {
        "encoding": "inplace",
        "label": "enum Jackpot.GameState",
        "numberOfBytes": "1"
      },
      "t_mapping(t_address,t_uint256)": {
        "encoding": "mapping",
        "key": "t_address",
        "label": "mapping(address => uint256)",
        "numberOfBytes": "32",
        "value": "t_uint256"
      },
      "t_uint256": {
        "encoding": "inplace",
        "label": "uint256",
        "numberOfBytes": "32"
      },
      "t_uint32": {
        "encoding": "inplace",
        "label": "uint32",
        "numberOfBytes": "4"
      }
    }
  }
}