{
  "address": "0x83838E6338b4d595B98fAE618A92671B17bFfAcb",
  "abi": [
    {
      "inputs": [
        {
          "internalType": "address",
          "name": "vrfCoordinatorV2",
          "type": "address"
        },
        {
          "internalType": "bytes32",
          "name": "gasLane",
          "type": "bytes32"
        },
        {
          "internalType": "uint64",
          "name": "subscriptionId",
          "type": "uint64"
        },
        {
          "internalType": "uint32",
          "name": "callbackGasLimit",
          "type": "uint32"
        },
        {
          "internalType": "uint256",
          "name": "entranceFee_min",
          "type": "uint256"
        },
        {
          "internalType": "uint256",
          "name": "entranceFee_max",
          "type": "uint256"
        },
        {
          "internalType": "uint32",
          "name": "winRate",
          "type": "uint32"
        },
        {
          "internalType": "uint256",
          "name": "gameTime",
          "type": "uint256"
        }
      ],
      "stateMutability": "nonpayable",
      "type": "constructor"
    },
    {
      "inputs": [],
      "name": "Jackpot_NotEnoughEthEntered",
      "type": "error"
    },
    {
      "inputs": [],
      "name": "Jackpot_NotOpen",
      "type": "error"
    },
    {
      "inputs": [
        {
          "internalType": "uint256",
          "name": "feeAmount",
          "type": "uint256"
        }
      ],
      "name": "Jackpot_TansferToOwnerFailed",
      "type": "error"
    },
    {
      "inputs": [
        {
          "internalType": "address",
          "name": "winner",
          "type": "address"
        },
        {
          "internalType": "uint256",
          "name": "winAmount",
          "type": "uint256"
        }
      ],
      "name": "Jackpot_TansferToWinnerFailed",
      "type": "error"
    },
    {
      "inputs": [],
      "name": "Jackpot_TooMuchEthEntered",
      "type": "error"
    },
    {
      "inputs": [
        {
          "internalType": "uint256",
          "name": "currentBalance",
          "type": "uint256"
        },
        {
          "internalType": "uint256",
          "name": "numPlayers",
          "type": "uint256"
        },
        {
          "internalType": "uint256",
          "name": "raffleState",
          "type": "uint256"
        }
      ],
      "name": "Jackpot_UpkeepNotNeeded",
      "type": "error"
    },
    {
      "inputs": [
        {
          "internalType": "uint256",
          "name": "randomWord",
          "type": "uint256"
        }
      ],
      "name": "Jackpot__NoWinnerFound",
      "type": "error"
    },
    {
      "inputs": [
        {
          "internalType": "address",
          "name": "have",
          "type": "address"
        },
        {
          "internalType": "address",
          "name": "want",
          "type": "address"
        }
      ],
      "name": "OnlyCoordinatorCanFulfill",
      "type": "error"
    },
    {
      "anonymous": false,
      "inputs": [
        {
          "indexed": false,
          "internalType": "uint256",
          "name": "amount",
          "type": "uint256"
        }
      ],
      "name": "GameFeeTransfered",
      "type": "event"
    },
    {
      "anonymous": false,
      "inputs": [
        {
          "indexed": true,
          "internalType": "address",
          "name": "player",
          "type": "address"
        },
        {
          "indexed": false,
          "internalType": "uint256",
          "name": "amount",
          "type": "uint256"
        }
      ],
      "name": "JackpotEnter",
      "type": "event"
    },
    {
      "anonymous": false,
      "inputs": [
        {
          "indexed": true,
          "internalType": "uint256",
          "name": "requestId",
          "type": "uint256"
        }
      ],
      "name": "RequestedJackpotWinner",
      "type": "event"
    },
    {
      "anonymous": false,
      "inputs": [
        {
          "indexed": true,
          "internalType": "address",
          "name": "winner",
          "type": "address"
        },
        {
          "indexed": true,
          "internalType": "uint256",
          "name": "rndNumber",
          "type": "uint256"
        },
        {
          "indexed": true,
          "internalType": "uint256",
          "name": "indexOfWinningBalance",
          "type": "uint256"
        },
        {
          "indexed": false,
          "internalType": "uint256",
          "name": "contractStartingBalance",
          "type": "uint256"
        }
      ],
      "name": "WinnerPicked",
      "type": "event"
    },
    {
      "inputs": [
        {
          "internalType": "bytes",
          "name": "checkData",
          "type": "bytes"
        }
      ],
      "name": "checkUpkeep",
      "outputs": [
        {
          "internalType": "bool",
          "name": "upkeepNeeded",
          "type": "bool"
        },
        {
          "internalType": "bytes",
          "name": "",
          "type": "bytes"
        }
      ],
      "stateMutability": "nonpayable",
      "type": "function"
    },
    {
      "inputs": [],
      "name": "enterJackpot",
      "outputs": [],
      "stateMutability": "payable",
      "type": "function"
    },
    {
      "inputs": [
        {
          "internalType": "address",
          "name": "player",
          "type": "address"
        }
      ],
      "name": "getAddressToAmount",
      "outputs": [
        {
          "internalType": "uint256",
          "name": "",
          "type": "uint256"
        }
      ],
      "stateMutability": "view",
      "type": "function"
    },
    {
      "inputs": [],
      "name": "getEntranceFeeMax",
      "outputs": [
        {
          "internalType": "uint256",
          "name": "",
          "type": "uint256"
        }
      ],
      "stateMutability": "view",
      "type": "function"
    },
    {
      "inputs": [],
      "name": "getEntranceFeeMin",
      "outputs": [
        {
          "internalType": "uint256",
          "name": "",
          "type": "uint256"
        }
      ],
      "stateMutability": "view",
      "type": "function"
    },
    {
      "inputs": [],
      "name": "getGameStartTimeStamp",
      "outputs": [
        {
          "internalType": "uint256",
          "name": "",
          "type": "uint256"
        }
      ],
      "stateMutability": "view",
      "type": "function"
    },
    {
      "inputs": [],
      "name": "getGameState",
      "outputs": [
        {
          "internalType": "enum Jackpot.GameState",
          "name": "",
          "type": "uint8"
        }
      ],
      "stateMutability": "view",
      "type": "function"
    },
    {
      "inputs": [],
      "name": "getGameTime",
      "outputs": [
        {
          "internalType": "uint256",
          "name": "",
          "type": "uint256"
        }
      ],
      "stateMutability": "view",
      "type": "function"
    },
    {
      "inputs": [],
      "name": "getOwner",
      "outputs": [
        {
          "internalType": "address",
          "name": "",
          "type": "address"
        }
      ],
      "stateMutability": "view",
      "type": "function"
    },
    {
      "inputs": [
        {
          "internalType": "uint256",
          "name": "index",
          "type": "uint256"
        }
      ],
      "name": "getPlayerAtIndex",
      "outputs": [
        {
          "internalType": "address",
          "name": "",
          "type": "address"
        }
      ],
      "stateMutability": "view",
      "type": "function"
    },
    {
      "inputs": [],
      "name": "getPlayersAmount",
      "outputs": [
        {
          "internalType": "uint256",
          "name": "",
          "type": "uint256"
        }
      ],
      "stateMutability": "view",
      "type": "function"
    },
    {
      "inputs": [],
      "name": "getRecentWinner",
      "outputs": [
        {
          "internalType": "address",
          "name": "",
          "type": "address"
        }
      ],
      "stateMutability": "view",
      "type": "function"
    },
    {
      "inputs": [],
      "name": "getRecentWinnerAmount",
      "outputs": [
        {
          "internalType": "uint256",
          "name": "",
          "type": "uint256"
        }
      ],
      "stateMutability": "view",
      "type": "function"
    },
    {
      "inputs": [],
      "name": "getRecentWinnerEntry",
      "outputs": [
        {
          "internalType": "uint256",
          "name": "",
          "type": "uint256"
        }
      ],
      "stateMutability": "view",
      "type": "function"
    },
    {
      "inputs": [],
      "name": "getWinRate",
      "outputs": [
        {
          "internalType": "uint32",
          "name": "",
          "type": "uint32"
        }
      ],
      "stateMutability": "view",
      "type": "function"
    },
    {
      "inputs": [
        {
          "internalType": "bytes",
          "name": "",
          "type": "bytes"
        }
      ],
      "name": "performUpkeep",
      "outputs": [],
      "stateMutability": "nonpayable",
      "type": "function"
    },
    {
      "inputs": [
        {
          "internalType": "uint256",
          "name": "requestId",
          "type": "uint256"
        },
        {
          "internalType": "uint256[]",
          "name": "randomWords",
          "type": "uint256[]"
        }
      ],
      "name": "rawFulfillRandomWords",
      "outputs": [],
      "stateMutability": "nonpayable",
      "type": "function"
    }
  ],
  "transactionHash": "0x2ad4113d46c03438314c79ecfe8143e6bc94ac7d595032062a78830016d7f157",
  "args": [
    "0x8103B0A8A00be2DDC778e6e7eaa21791Cd364625",
    "0x474e34a077df58807dbe9c96d3c009b23b3c6d0cce433e59bbf5b34f823bc56c",
    "2867",
    "500000",
    "1000000000000000",
    "1000000000000000000",
    95,
    "60"
  ],
  "numDeployments": 1,
  "solcInputHash": "14bfd120f9efa873aaf30c353328cb11",
  "bytecode": "0x61016060405234801561001157600080fd5b5060405161120b38038061120b833981016040819052610030916100cc565b6001600160a01b0397909716608081905260a05260c0959095526001600160401b039390931660e05263ffffffff918216610100526000805461012092909252610140939093526001600160c01b0319163363ffffffff60a01b191617600160a01b91909316029190911790556001556004805460ff1916905542600555610164565b805163ffffffff811681146100c757600080fd5b919050565b600080600080600080600080610100898b0312156100e957600080fd5b88516001600160a01b038116811461010057600080fd5b60208a015160408b015191995097506001600160401b038116811461012457600080fd5b955061013260608a016100b3565b94506080890151935060a0890151925061014e60c08a016100b3565b915060e089015190509295985092959890939650565b60805160a05160c05160e0516101005161012051610140516110316101da6000396000818161033101526106d50152600081816102e90152818161061e0152610677015260006104f7015260006104c0015260006104980152600061053501526000818161039001526103d201526110316000f3fe6080604052600436106100fe5760003560e01c8063893d20e811610095578063c0f8cffc11610064578063c0f8cffc1461029c578063da931fe0146102d2578063ee106406146102da578063f2f9bcbe1461030d578063fb48d0431461032257600080fd5b8063893d20e8146102345780639d21dd7814610252578063a2648b8414610267578063b7d0628b1461027c57600080fd5b8063473f1ddc116100d1578063473f1ddc146101a15780636e04ff0d146101bf5780636e0e126e146101ed5780636f61e4321461020257600080fd5b80630bcd484a146101035780631b1d6629146101405780631fe543e31461015f5780634585e33b14610181575b600080fd5b34801561010f57600080fd5b5061012361011e366004610c3d565b610355565b6040516001600160a01b0390911681526020015b60405180910390f35b34801561014c57600080fd5b506002545b604051908152602001610137565b34801561016b57600080fd5b5061017f61017a366004610c9d565b610385565b005b34801561018d57600080fd5b5061017f61019c366004610d4f565b610412565b3480156101ad57600080fd5b506006546001600160a01b0316610123565b3480156101cb57600080fd5b506101df6101da366004610dc1565b6105d6565b604051610137929190610e56565b3480156101f957600080fd5b50600754610151565b34801561020e57600080fd5b50600054600160a01b900463ffffffff1660405163ffffffff9091168152602001610137565b34801561024057600080fd5b506000546001600160a01b0316610123565b34801561025e57600080fd5b50600154610151565b34801561027357600080fd5b50600854610151565b34801561028857600080fd5b5060045460ff166040516101379190610ec4565b3480156102a857600080fd5b506101516102b7366004610eec565b6001600160a01b031660009081526003602052604090205490565b61017f610675565b3480156102e657600080fd5b507f0000000000000000000000000000000000000000000000000000000000000000610151565b34801561031957600080fd5b50600554610151565b34801561032e57600080fd5b507f0000000000000000000000000000000000000000000000000000000000000000610151565b60006002828154811061036a5761036a610f1c565b6000918252602090912001546001600160a01b031692915050565b336001600160a01b037f000000000000000000000000000000000000000000000000000000000000000016146104045760405163073e64fd60e21b81523360048201526001600160a01b037f00000000000000000000000000000000000000000000000000000000000000001660248201526044015b60405180910390fd5b61040e828261082a565b5050565b600061042c604051806020016040528060008152506105d6565b5090508061047c5760028054600454479260ff9091169081111561045257610452610eae565b604051639f685eef60e01b81526004810193909352602483019190915260448201526064016103fb565b6004805460ff191660021781556040516305d3b1d360e41b81527f0000000000000000000000000000000000000000000000000000000000000000918101919091527f000000000000000000000000000000000000000000000000000000000000000067ffffffffffffffff166024820152600360448201527f000000000000000000000000000000000000000000000000000000000000000063ffffffff166064820152600160848201526000906001600160a01b037f00000000000000000000000000000000000000000000000000000000000000001690635d3b1d309060a4016020604051808303816000875af115801561057e573d6000803e3d6000fd5b505050506040513d601f19601f820116820180604052508101906105a29190610f32565b60405190915081907f6aad543c7a9f51b57161c6d8615355bda83dc7aca9edf7afc1ce73b9f605ab3e90600090a250505050565b6000606081600160045460ff1660028111156105f4576105f4610eae565b14905060006001546005544261060a9190610f61565b1190506000600160028054905011905060007f000000000000000000000000000000000000000000000000000000000000000060026106499190610f7a565b47101590508380156106585750825b80156106615750815b801561066a5750805b955050505050915091565b7f00000000000000000000000000000000000000000000000000000000000000003410156106b6576040516334b462ef60e01b815260040160405180910390fd5b336000908152600360205260408120546106d1903490610f91565b90507f000000000000000000000000000000000000000000000000000000000000000081111561071357604051622a760b60e91b815260040160405180910390fd5b600260045460ff16600281111561072c5761072c610eae565b0361074a57604051633e3fa89560e21b815260040160405180910390fd5b3360009081526003602052604081205490036107a357600280546001810182556000919091527f405787fa12a823e0f2b7631cc41b3ba8828b3321ca811111fa75cd3aa3bb5ace0180546001600160a01b031916331790555b33600090815260036020526040812082905560045460ff1660028111156107cc576107cc610eae565b1480156107db57506002546001105b156107f257426005556004805460ff191660011790555b60405181815233907f77c14226c05e841358bdd5c71853a6a80bf44a8630443ef288711838db4c412d9060200160405180910390a250565b60004790506000818360008151811061084557610845610f1c565b60200260200101516108579190610fba565b90506000806000805b6002548110156108d757600360006002838154811061088157610881610f1c565b60009182526020808320909101546001600160a01b031683528201929092526040019020546108b09085610f91565b93508385116108c557809150600192506108d7565b806108cf81610fce565b915050610860565b508161091457856000815181106108f0576108f0610f1c565b6020026020010151604051632853fc1d60e21b81526004016103fb91815260200190565b60006002828154811061092957610929610f1c565b600091825260208220015481546001600160a01b03909116925060649061095d90600160a01b900463ffffffff1647610f7a565b6109679190610fe7565b600680546001600160a01b0319166001600160a01b03851690811790915560009081526003602052604081205460085560078290556004805460ff191690559091505b600254811015610a0457600060036000600284815481106109cd576109cd610f1c565b60009182526020808320909101546001600160a01b03168352820192909252604001902055806109fc81610fce565b9150506109aa565b506040805160008152602081019182905251610a2291600291610bc3565b50426005556040516000906001600160a01b0384169083908381818185875af1925050503d8060008114610a72576040519150601f19603f3d011682016040523d82523d6000602084013e610a77565b606091505b5050905080610aab576040516391d2309160e01b81526001600160a01b0384166004820152602481018390526044016103fb565b8689600081518110610abf57610abf610f1c565b6020026020010151846001600160a01b03167f0c94cfc5a2ba1b9f32b037a5042267ae4df56cb9d5308471e0b3d05d099d591d8b604051610b0291815260200190565b60405180910390a4600080546040514792916001600160a01b03169047908381818185875af1925050503d8060008114610b58576040519150601f19603f3d011682016040523d82523d6000602084013e610b5d565b606091505b5050905080610b825760405163244e08a560e11b8152600481018390526024016103fb565b6040518281527f1314e3ae34630ec7009a8b8f90b1e3093eab539f0428edaf5039a3a85403b85b9060200160405180910390a1505050505050505050505050565b828054828255906000526020600020908101928215610c18579160200282015b82811115610c1857825182546001600160a01b0319166001600160a01b03909116178255602090920191600190910190610be3565b50610c24929150610c28565b5090565b5b80821115610c245760008155600101610c29565b600060208284031215610c4f57600080fd5b5035919050565b634e487b7160e01b600052604160045260246000fd5b604051601f8201601f1916810167ffffffffffffffff81118282101715610c9557610c95610c56565b604052919050565b60008060408385031215610cb057600080fd5b8235915060208084013567ffffffffffffffff80821115610cd057600080fd5b818601915086601f830112610ce457600080fd5b813581811115610cf657610cf6610c56565b8060051b9150610d07848301610c6c565b8181529183018401918481019089841115610d2157600080fd5b938501935b83851015610d3f57843582529385019390850190610d26565b8096505050505050509250929050565b60008060208385031215610d6257600080fd5b823567ffffffffffffffff80821115610d7a57600080fd5b818501915085601f830112610d8e57600080fd5b813581811115610d9d57600080fd5b866020828501011115610daf57600080fd5b60209290920196919550909350505050565b60006020808385031215610dd457600080fd5b823567ffffffffffffffff80821115610dec57600080fd5b818501915085601f830112610e0057600080fd5b813581811115610e1257610e12610c56565b610e24601f8201601f19168501610c6c565b91508082528684828501011115610e3a57600080fd5b8084840185840137600090820190930192909252509392505050565b821515815260006020604081840152835180604085015260005b81811015610e8c57858101830151858201606001528201610e70565b506000606082860101526060601f19601f830116850101925050509392505050565b634e487b7160e01b600052602160045260246000fd5b6020810160038310610ee657634e487b7160e01b600052602160045260246000fd5b91905290565b600060208284031215610efe57600080fd5b81356001600160a01b0381168114610f1557600080fd5b9392505050565b634e487b7160e01b600052603260045260246000fd5b600060208284031215610f4457600080fd5b5051919050565b634e487b7160e01b600052601160045260246000fd5b81810381811115610f7457610f74610f4b565b92915050565b8082028115828204841417610f7457610f74610f4b565b80820180821115610f7457610f74610f4b565b634e487b7160e01b600052601260045260246000fd5b600082610fc957610fc9610fa4565b500690565b600060018201610fe057610fe0610f4b565b5060010190565b600082610ff657610ff6610fa4565b50049056fea264697066735822122026a02dbdf3a4e965de0ff784ce426e24e2ec107758f3249adf5c1384702fcbba64736f6c63430008130033",
  "devdoc": {
    "kind": "dev",
    "methods": {
      "checkUpkeep(bytes)": {
        "details": "To ensure that it is never called, you may want to add the cannotExecute modifier from KeeperBase to your implementation of this method.",
        "params": {
          "checkData": "specified in the upkeep registration so it is always the same for a registered upkeep. This can easily be broken down into specific arguments using `abi.decode`, so multiple upkeeps can be registered on the same contract and easily differentiated by the contract."
        },
        "returns": {
          "_1": "bytes that the keeper should call performUpkeep with, if upkeep is needed. If you would like to encode data to decode later, try `abi.encode`.",
          "upkeepNeeded": "boolean to indicate whether the keeper should call performUpkeep or not."
        }
      }
    },
    "version": 1
  },
  "userdoc": {
    "kind": "user",
    "methods": {
      "checkUpkeep(bytes)": {
        "notice": "method that is simulated by the keepers to see if any work actually needs to be performed. This method does does not actually need to be executable, and since it is only ever simulated it can consume lots of gas."
      }
    },
    "version": 1
  },
  "storageLayout": {
    "storage": [
      {
        "astId": 1192,
        "contract": "contracts/Jackpot.sol:Jackpot",
        "label": "i_owner",
        "offset": 0,
        "slot": "0",
        "type": "t_address_payable"
      },
      {
        "astId": 1198,
        "contract": "contracts/Jackpot.sol:Jackpot",
        "label": "i_winRate",
        "offset": 20,
        "slot": "0",
        "type": "t_uint32"
      },
      {
        "astId": 1200,
        "contract": "contracts/Jackpot.sol:Jackpot",
        "label": "i_gameTime",
        "offset": 0,
        "slot": "1",
        "type": "t_uint256"
      },
      {
        "astId": 1203,
        "contract": "contracts/Jackpot.sol:Jackpot",
        "label": "s_players",
        "offset": 0,
        "slot": "2",
        "type": "t_array(t_address_payable)dyn_storage"
      },
      {
        "astId": 1207,
        "contract": "contracts/Jackpot.sol:Jackpot",
        "label": "s_addressToAmount",
        "offset": 0,
        "slot": "3",
        "type": "t_mapping(t_address,t_uint256)"
      },
      {
        "astId": 1210,
        "contract": "contracts/Jackpot.sol:Jackpot",
        "label": "s_gameState",
        "offset": 0,
        "slot": "4",
        "type": "t_enum(GameState)1175"
      },
      {
        "astId": 1212,
        "contract": "contracts/Jackpot.sol:Jackpot",
        "label": "s_gameStartTimeStamp",
        "offset": 0,
        "slot": "5",
        "type": "t_uint256"
      },
      {
        "astId": 1214,
        "contract": "contracts/Jackpot.sol:Jackpot",
        "label": "s_recentWinnerAddress",
        "offset": 0,
        "slot": "6",
        "type": "t_address"
      },
      {
        "astId": 1216,
        "contract": "contracts/Jackpot.sol:Jackpot",
        "label": "s_recentWinnerAmount",
        "offset": 0,
        "slot": "7",
        "type": "t_uint256"
      },
      {
        "astId": 1218,
        "contract": "contracts/Jackpot.sol:Jackpot",
        "label": "s_recentWinnerEntry",
        "offset": 0,
        "slot": "8",
        "type": "t_uint256"
      }
    ],
    "types": {
      "t_address": {
        "encoding": "inplace",
        "label": "address",
        "numberOfBytes": "20"
      },
      "t_address_payable": {
        "encoding": "inplace",
        "label": "address payable",
        "numberOfBytes": "20"
      },
      "t_array(t_address_payable)dyn_storage": {
        "base": "t_address_payable",
        "encoding": "dynamic_array",
        "label": "address payable[]",
        "numberOfBytes": "32"
      },
      "t_enum(GameState)1175": {
        "encoding": "inplace",
        "label": "enum Jackpot.GameState",
        "numberOfBytes": "1"
      },
      "t_mapping(t_address,t_uint256)": {
        "encoding": "mapping",
        "key": "t_address",
        "label": "mapping(address => uint256)",
        "numberOfBytes": "32",
        "value": "t_uint256"
      },
      "t_uint256": {
        "encoding": "inplace",
        "label": "uint256",
        "numberOfBytes": "32"
      },
      "t_uint32": {
        "encoding": "inplace",
        "label": "uint32",
        "numberOfBytes": "4"
      }
    }
  }
}